{
  "contractName": "DappToken",
  "abi": [
    {
      "constant": true,
      "inputs": [],
      "name": "totalSupply",
      "outputs": [
        {
          "name": "",
          "type": "uint256"
        }
      ],
      "payable": false,
      "stateMutability": "view",
      "type": "function"
    },
    {
      "inputs": [],
      "payable": false,
      "stateMutability": "nonpayable",
      "type": "constructor"
    }
  ],
  "bytecode": "0x608060405234801561001057600080fd5b50620f4240600081905550609e806100296000396000f300608060405260043610603f576000357c0100000000000000000000000000000000000000000000000000000000900463ffffffff16806318160ddd146044575b600080fd5b348015604f57600080fd5b506056606c565b6040518082815260200191505060405180910390f35b600054815600a165627a7a7230582025ef84a41d9b6047f25ebc62ae858f4538e8192de3b86f29ae526718214266ff0029",
  "source": "//Will impliment the ERC20 standard\npragma solidity ^0.4.2;\n\ncontract DappToken{\n\t// Constructor\n\t//Set the total number of tokens available\n\t// read the total number of tokens\n\n\tuint256 public totalSupply; //initalized with how many tokens are available\n\n\t//constructor\n\tfunction DappToken() public {\n\t\ttotalSupply = 1000000;\n\t}\n}\n",
  "sourcePath": "/Users/gloria_kimbwala/token_sale/contracts/DappToken.sol",
  "compiler": {
    "name": "solc",
    "version": "0.4.23+commit.124ca40d.Emscripten.clang"
  },
  "schemaVersion": "2.0.0",
  "updatedAt": "2018-05-23T03:55:47.374Z"
}